:100000000C945D000C9485000C9485000C94850084
:100010000C9485000C9485000C9485000C9485004C
:100020000C9485000C9485000C9485000C9485003C
:100030000C9485000C9485000C9485000C9485002C
:100040000C9430050C9485000C94A0050C947A0552
:100050000C9485000C9485000C9485000C9485000C
:100060000C9485000C9485000000000024002700FB
:100070002A0000000000250028002B0004040404CE
:100080000404040402020202020203030303030342
:10009000010204081020408001020408102001021F
:1000A00004081020000000080002010000030407FB
:1000B0000000000000000000D20511241FBECFEF99
:1000C000D8E0DEBFCDBF11E0A0E0B1E0E4E7FFE0A3
:1000D00002C005900D92A638B107D9F724E0A6E832
:1000E000B1E001C01D92A136B207E1F710E0CDE505
:1000F000D0E004C02197FE010E949E07CC35D107B5
:10010000C9F70E9417060C94B8070C940000E6EAA1
:10011000F0E02491E2E9F0E09491EEE7F0E0E49180
:10012000EE23C9F0222339F0233001F1A8F4213065
:1001300019F1223029F1F0E0EE0FFF1FEE58FF4FCA
:10014000A591B4912FB7F894EC91811126C09095A8
:100150009E239C932FBF08952730A9F02830C9F023
:10016000243049F7209180002F7D03C0209180002A
:100170002F7720938000DFCF24B52F7724BDDBCFEE
:1001800024B52F7DFBCF2091B0002F772093B000B6
:10019000D2CF2091B0002F7DF9CF9E2BDACF3FB781
:1001A000F89480918C0190918D01A0918E01B09175
:1001B0008F0126B5A89B05C02F3F19F00196A11D00
:1001C000B11D3FBFBA2FA92F982F8827BC01CD01A1
:1001D000620F711D811D911D42E0660F771F881F00
:1001E000991F4A95D1F7089581E00C94870080E02B
:1001F0000C948700AF92BF92CF92DF92EF92FF9262
:100200000F931F93CF93DF936C017B018B01040F3E
:10021000151FEB015E01AE18BF08C017D10759F0DA
:100220006991D601ED91FC910190F081E02DC6011C
:100230000995892B79F7C501DF91CF911F910F9116
:10024000FF90EF90DF90CF90BF90AF900895FC01AA
:10025000538D448D252F30E0842F90E0821B930B2B
:10026000541710F0CF96089501970895FC01918DD1
:10027000828D981761F0A28DAE0FBF2FB11D5D96D4
:100280008C91928D9F5F9F73928F90E008958FEF76
:100290009FEF0895FC01918D828D981731F0828D2A
:1002A000E80FF11D858D90E008958FEF9FEF089581
:1002B000FC01918D228D892F90E0805C9F4F821BE5
:1002C00091098F739927089580E991E00E94580160
:1002D00021E0892B09F420E0822F089580E090E04E
:1002E000892B29F00E94640181110C94000008956B
:1002F000FC01A48DA80FB92FB11DA35ABF4F2C919B
:10030000848D90E001968F739927848FA689B78991
:100310002C93A089B1898C91837080648C93938D88
:10032000848D981306C00288F389E02D80818F7D2B
:1003300080830895EF92FF920F931F93CF93DF93E3
:10034000EC0181E0888F9B8D8C8D98131AC0E88911
:10035000F989808185FF15C09FB7F894EE89FF89E0
:100360006083E889F98980818370806480839FBF7E
:1003700081E090E0DF91CF911F910F91FF90EF907E
:100380000895F62E0B8D10E00F5F1F4F0F7311278E
:10039000E02E8C8D8E110CC00FB607FCFACFE889C9
:1003A000F989808185FFF5CFCE010E947801F1CFD8
:1003B000EB8DEC0FFD2FF11DE35AFF4FF0829FB73D
:1003C000F8940B8FEA89FB8980818062CFCF682FF8
:1003D00080E991E00C949A01CF93DF93EC01888D32
:1003E0008823B9F0AA89BB89E889F9898C9185FDB0
:1003F00003C0808186FD0DC00FB607FCF7CF8C913E
:1004000085FFF2CF808185FFEDCFCE010E9478017C
:10041000E9CFDF91CF9108954F925F926F927F92D3
:100420008F929F92BF92CF92DF92EF92FF920F93A3
:100430001F93CF93DF93CDB7DEB7DA950FB6F8945D
:10044000DEBF0FBECDBF8C01B62EDC0112968C91A3
:10045000129789836A838DEF860F823008F03DC042
:1004600013968C91139714969C9114979B838C836D
:1004700015968C91159716969C919D838E83E6E038
:100480002E2F30E081E08E0F90E042E04E0FBE0153
:100490006F5F7F4F7B0175E0B71641F1A6E0BA169A
:1004A000A1F16701D7018FEF9FEF9E2C2A2F2E1904
:1004B0002E1778F52D91822728E030E0AC014170AD
:1004C000552796958795452B21F0F1E08F27F0EA87
:1004D0009F272150310991F7E9CFF801E957FF4FE4
:1004E000808191819B838C83E4E0CACFF801E75738
:1004F000FF4F508161812E0D3F1DF90160838E0DEC
:100500009F1DDC015C93E42FCCCFF801E557FF4F32
:10051000F0CFD701AE0FB11D8C93F2E08F2E8E0E6F
:10052000EF5FEE0DFF2DF11D9083F701E80DF11D3A
:100530001082D8018D919C91DC01ED91FC91028497
:10054000F385E02D09950196A1F7F801EA5EFE4FCB
:100550000190F081E02D309709F00995F801808134
:100560009181DC01ED91FC912C2D2919281540F485
:10057000D6016D916D010190F081E02D0995EECFCE
:100580000680F781E02D0995F801E85EFE4F0190A5
:10059000F081E02D309709F009958FB7F8944090DD
:1005A00088015090890160908A0170908B018FBF03
:1005B000E8E0CE2ED12C4801BCEE8B1ABEEF9B0A90
:1005C000F80180819181DC01ED91FC910084F1853D
:1005D000E02D0995892B09F448C0F80180819181AB
:1005E000DC01ED91FC910284F385E02D0995F70182
:1005F000ED0DF11D8083CA94D394B5E0DB125DC08C
:100600009981F8018281981329C1EA818E2F8F7711
:100610008B1126C1E7FF31C08B81811169C08FEF3B
:100620009FEF40E0CD2CD12CD6011297242F30E043
:100630002A173B070CF0BCC02E0D3F1DF90120818D
:10064000822728E030E0BC01617077279695879576
:10065000672B21F0F1E08F27F0EA9F272150310925
:1006600091F74F5FE3CF82EE3EC0D401ED91FC9154
:10067000309709F4C2CF0995C0CFE150E731E8F4D3
:10068000F0E0EB5BFC4F0C949E075C035C035C03A7
:100690005C039A039A035D035D035D035D035D03E1
:1006A0005D035D035D039A039A035D035D035D03D0
:1006B0005D035D0397035C03CB802FB7F8948091B3
:1006C000880190918901A0918A01B0918B012FBF7F
:1006D00084199509A609B709813D9740A105B1057F
:1006E00008F0C1CF80E0CC2041F1882309F468CF25
:1006F000F801E35FFE4F108231961182108234962A
:100700001082D3950FB6F894DEBF0FBECDBFDF9138
:10071000CF911F910F91FF90EF90DF90CF90BF90FE
:100720009F908F907F906F905F904F90089575E0AD
:10073000C72EC3CF63E0C62EC0CF8111D9CF24E02E
:100740002D1508F46CCF8A81853030F4833030F475
:100750008130E0F580E0CCCF8731E1F74B8150E08C
:100760005595479580E068012DEEC21A2EEFD20A0A
:10077000282F30E0241735076CF78034A8F4F901EE
:100780003296EE0FFF1F220F331F200F311FBE01C5
:100790006E0F7F1FDB016C91EE0DFF1D9081762F98
:1007A000692FF90170876783D6018C938F5FE0CF43
:1007B000AE0DBF1D2C91281307C0F601EC0FFD1FD5
:1007C0008081891709F4BFCF83EE92CF6B81462FCA
:1007D00050E05595479520E068017DEEC71A7EEF01
:1007E000D70A822F90E0841795070CF52034D8F4AF
:1007F000880F991FD801A80FB91FF5E0EF2EF12C33
:10080000EC0EFD1EE80EF91EF7013081E4E0F0E089
:10081000EC0FFD1F8E0F9F1FFC018081932F1896F8
:100820009C938E931797D6012C932F5FDACF60FF9E
:1008300091CF203468F4880F991FF801E80FF91F51
:100840008C0F9D1FDC0114968C9190E0908787831C
:10085000F801ED5EFE4F2F5F20837CCF80EE48CF06
:1008600081EE46CFFC0101900020E9F73197AF01FE
:10087000481B590BBC0180E991E00C94FA008F925F
:100880009F92AF92BF920F931F93CF93DF93CDB7F9
:10089000DEB7A1970FB6F894DEBF0FBECDBF19A289
:1008A000423008F44AE08E010F5D1F4F842E912CD8
:1008B000B12CA12CA50194010E946807E62FB90173
:1008C000CA01EA30F4F4E05DD801EE938D01232BE8
:1008D000242B252B79F790E080E0109719F0CD01BB
:1008E0000E943204A1960FB6F894DEBF0FBECDBFB2
:1008F000DF91CF911F910F91BF90AF909F908F90FC
:100900000895E95CE1CF0C943204CF93DF93682F14
:1009100070E090E080E040E10E943F04EC0182E161
:1009200091E00E9432048C0F9D1FDF91CF910895BA
:10093000CF92DF92EF92FF92CF93DF93EC0197FF7C
:1009400006C08DE20E94E701D195C195D109CE0183
:100950006AE070E00E948A076B01770FEE08FF08DB
:100960004AE0C701B601F7FE0BC08DE20E94E70125
:1009700066277727CB016C197D098E099F094AE00C
:100980000E943F048EE20E94E701CE016AE070E01F
:100990000E948A07BC01990F880B990B4AE0DF91EE
:1009A000CF91FF90EF90DF90CF900C943F04EF92A7
:1009B000FF920F931F93CF93DF937C01EB01142FD2
:1009C0001C821B8283E090E09E838D8364E0CE01D5
:1009D0000E940C02082F85E191E00E948304612FA0
:1009E00070E090E080E04AE00E943F0480E20E94D4
:1009F000E701C7010E948304002369F08BE191E0C5
:100A00000E948304802FDF91CF911F910F91FF905F
:100A1000EF900C94850485E291E00E9483048F811D
:100A200098850E94980489E291E00E948304898558
:100A30009A850E9498048DE291E00E9483046B8560
:100A40007C8590E080E04AE00E943F0482E191E0F2
:100A5000DF91CF911F910F91FF90EF900C94320492
:100A60001F920F920FB60F9211242F933F938F93E3
:100A70009F93AF93BF938091880190918901A0913A
:100A80008A01B0918B013091870123E0230F2D372C
:100A900058F50196A11DB11D20938701809388010F
:100AA00090938901A0938A01B0938B0180918C016E
:100AB00090918D01A0918E01B0918F010196A11DA1
:100AC000B11D80938C0190938D01A0938E01B09302
:100AD0008F01BF91AF919F918F913F912F910F9077
:100AE0000FBE0F901F90189526E8230F0296A11DA8
:100AF000B11DD2CF1F920F920FB60F9211242F93D8
:100B00003F934F935F936F937F938F939F93AF9395
:100B1000BF93EF93FF9380E991E00E947801FF91EA
:100B2000EF91BF91AF919F918F917F916F915F9165
:100B30004F913F912F910F900FBE0F901F901895DE
:100B40001F920F920FB60F9211242F938F939F93A2
:100B5000EF93FF93E091A001F091A1018081E091DA
:100B6000A601F091A70182FD1BC090818091A9018F
:100B70008F5F8F732091AA01821741F0E091A90144
:100B8000F0E0E057FE4F958F8093A901FF91EF9120
:100B90009F918F912F910F900FBE0F901F901895DE
:100BA0008081F4CFE0E9F1E01382128288EE93E0D5
:100BB000A0E0B0E084839583A683B78384E091E0CE
:100BC0009183808385EC90E09587848784EC90E026
:100BD0009787868780EC90E0918B808B81EC90E00A
:100BE000938B828B82EC90E0958B848B86EC90E0EB
:100BF000978B868B118E128E138E148E10925C043E
:100C000010925B0410925E0410925D0410926004D6
:100C100010925F0410924203109241031092440319
:100C2000109243031092460310924503089578945E
:100C300084B5826084BD84B5816084BD85B58260E1
:100C400085BD85B5816085BD80916E008160809392
:100C50006E001092810080918100826080938100FB
:100C6000809181008160809381008091800081600B
:100C7000809380008091B10084608093B100809166
:100C8000B00081608093B00080917A00846080938E
:100C90007A0080917A00826080937A0080917A0055
:100CA000816080937A0080917A00806880937A00D6
:100CB0001092C100E2E9F0E02491EEE7F0E08491C7
:100CC000882399F090E0880F991FFC01E859FF4FA5
:100CD000A591B491FC01EE58FF4F859194918FB787
:100CE000F894EC91E22BEC938FBF80E00E94870098
:100CF00020E931E0E091A001F091A10192E0908320
:100D0000E0919C01F0919D011082E0919E01F09193
:100D10009F018FEC80831092A801E091A401F091D3
:100D2000A50186E08083E091A201F091A30180817A
:100D300080618083E091A201F091A30180818860AD
:100D40008083E091A201F091A3018081806880837B
:100D5000E091A201F091A30180818F7D808381E0E9
:100D6000809349033093480320934703109254041F
:100D7000109256041092550490932F0230932E0235
:100D800020932D0210923A0310923C0310923B03E1
:100D900024EF30E030935E0420935D0487EF90E011
:100DA0009093600480935F04309344032093430343
:100DB000909346038093450383E391E00E943204BD
:100DC00082E191E00E94320490E0292E90E0392ED9
:100DD000812C22E0922EC1E0D0E001E011E035E06C
:100DE000A32EB12C409186014F5F4093860167E4AA
:100DF00073E088E491E00E94D704409186016DE29F
:100E000072E08BE491E00E94D704809186018230E9
:100E100071F590924B0380924A03D0934D03C09397
:100E20004C0363E087E493E00E940C02F82E8EE40A
:100E300091E00E9483048F2D0E9485041093B502D7
:100E40000093B4021092B7021092B602B092B902A7
:100E5000A092B80266E08DE292E00E940C02F82EA9
:100E600089E691E00E9483048F2D0E9485040E94F0
:100E7000CF002B013C0184EFC82EDD24D394E12C5C
:100E8000F12C0E94CF006419750986099709683E04
:100E9000734081059105A8F321E0C21AD108E10849
:100EA000F10888EE480E83E0581E611C711CC114C5
:100EB000D104E104F10429F72114310409F492CF9B
:100EC0000E946401882309F48DCF0E9400008ACF1C
:100ED000A1E21A2EAA1BBB1BFD010DC0AA1FBB1F3E
:100EE000EE1FFF1FA217B307E407F50720F0A21BB0
:100EF000B30BE40BF50B661F771F881F991F1A941D
:100F000069F760957095809590959B01AC01BD0146
:100F1000CF01089597FB072E16F4009407D077FDB4
:100F200009D00E94A40707FC05D03EF49095819556
:100F30009F4F0895709561957F4F0895EE0FFF1FA5
:100F40000590F491E02D0994AA1BBB1B51E107C049
:100F5000AA1FBB1FA617B70710F0A61BB70B881F49
:100F6000991F5A95A9F780959095BC01CD010895D8
:040F7000F894FFCF23
:100F7400000000009A01FA002701EC015801360133
:100F84004A010D0A00706F6C6C2000206572726F4C
:100F9400722030780020543D0020483D00207261CA
:100FA400773D006D6F646275732D727475206D6189
:100FB4007374657220757000733100733200706F42
:100FC4006C6C2032207331207265672030783032A7
:100FD4003030202D3E20307800706F6C6C20322031
:100FE4007332207772697465206F66667365742046
:060FF4002D3E20307800C4
:00000001FF
