:100000000C945D000C9485000C9485000C94850084
:100010000C9485000C9485000C9485000C9485004C
:100020000C9485000C9485000C9485000C9485003C
:100030000C9485000C9485000C9485000C9485002C
:100040000C9425050C9485000C9495050C946F0573
:100050000C9485000C9485000C9485000C9485000C
:100060000C9485000C9485000000000024002700FB
:100070002A0000000000250028002B0004040404CE
:100080000404040402020202020203030303030342
:10009000010204081020408001020408102001021F
:1000A00004081020000000080002010000030407FB
:1000B0000000000000000000C70511241FBECFEFA4
:1000C000D8E0DEBFCDBF11E0A0E0B1E0EEE5FFE09B
:1000D00002C005900D92A438B107D9F724E0A4E836
:1000E000B1E001C01D92AF35B207E1F710E0CDE5F8
:1000F000D0E004C02197FE010E949307CC35D107C0
:10010000C9F70E940C060C94AD070C940000E6EAB7
:10011000F0E02491E2E9F0E09491EEE7F0E0E49180
:10012000EE23C9F0222339F0233001F1A8F4213065
:1001300019F1223029F1F0E0EE0FFF1FEE58FF4FCA
:10014000A591B4912FB7F894EC91811126C09095A8
:100150009E239C932FBF08952730A9F02830C9F023
:10016000243049F7209180002F7D03C0209180002A
:100170002F7720938000DFCF24B52F7724BDDBCFEE
:1001800024B52F7DFBCF2091B0002F772093B000B6
:10019000D2CF2091B0002F7DF9CF9E2BDACF3FB781
:1001A000F89480918A0190918B01A0918C01B0917B
:1001B0008D0126B5A89B05C02F3F19F00196A11D02
:1001C000B11D3FBFBA2FA92F982F8827BC01CD01A1
:1001D000620F711D811D911D42E0660F771F881F00
:1001E000991F4A95D1F7089581E00C94870080E02B
:1001F0000C948700AF92BF92CF92DF92EF92FF9262
:100200000F931F93CF93DF936C017B018B01040F3E
:10021000151FEB015E01AE18BF08C017D10759F0DA
:100220006991D601ED91FC910190F081E02DC6011C
:100230000995892B79F7C501DF91CF911F910F9116
:10024000FF90EF90DF90CF90BF90AF900895FC01AA
:10025000538D448D252F30E0842F90E0821B930B2B
:10026000541710F0CF96089501970895FC01918DD1
:10027000828D981761F0A28DAE0FBF2FB11D5D96D4
:100280008C91928D9F5F9F73928F90E008958FEF76
:100290009FEF0895FC01918D828D981731F0828D2A
:1002A000E80FF11D858D90E008958FEF9FEF089581
:1002B000FC01918D228D892F90E0805C9F4F821BE5
:1002C00091098F73992708958EE891E00E94580153
:1002D00021E0892B09F420E0822F089580E090E04E
:1002E000892B29F00E94640181110C94000008956B
:1002F000FC01A48DA80FB92FB11DA35ABF4F2C919B
:10030000848D90E001968F739927848FA689B78991
:100310002C93A089B1898C91837080648C93938D88
:10032000848D981306C00288F389E02D80818F7D2B
:1003300080830895EF92FF920F931F93CF93DF93E3
:10034000EC0181E0888F9B8D8C8D98131AC0E88911
:10035000F989808185FF15C09FB7F894EE89FF89E0
:100360006083E889F98980818370806480839FBF7E
:1003700081E090E0DF91CF911F910F91FF90EF907E
:100380000895F62E0B8D10E00F5F1F4F0F7311278E
:10039000E02E8C8D8E110CC00FB607FCFACFE889C9
:1003A000F989808185FFF5CFCE010E947801F1CFD8
:1003B000EB8DEC0FFD2FF11DE35AFF4FF0829FB73D
:1003C000F8940B8FEA89FB8980818062CFCF682FF8
:1003D0008EE891E00C949A01CF93DF93EC01888D25
:1003E0008823B9F0AA89BB89E889F9898C9185FDB0
:1003F00003C0808186FD0DC00FB607FCF7CF8C913E
:1004000085FFF2CF808185FFEDCFCE010E9478017C
:10041000E9CFDF91CF9108954F925F926F927F92D3
:100420008F929F92BF92CF92DF92EF92FF920F93A3
:100430001F93CF93DF93CDB7DEB7DA950FB6F8945D
:10044000DEBF0FBECDBF8C01B62EDC0112968C91A3
:10045000129789836A838DEF860F823008F03DC042
:1004600013968C91139714969C9114979B838C836D
:1004700015968C91159716969C919D838E83E6E038
:100480002E2F30E081E08E0F90E042E04E0FBE0153
:100490006F5F7F4F7B0175E0B71641F1A6E0BA169A
:1004A000A1F16701D7018FEF9FEF9E2C2A2F2E1904
:1004B0002E1778F52D91822728E030E0AC014170AD
:1004C000552796958795452B21F0F1E08F27F0EA87
:1004D0009F272150310991F7E9CFF801E957FF4FE4
:1004E000808191819B838C83E4E0CACFF801E75738
:1004F000FF4F508161812E0D3F1DF90160838E0DEC
:100500009F1DDC015C93E42FCCCFF801E557FF4F32
:10051000F0CFD701AE0FB11D8C93F2E08F2E8E0E6F
:10052000EF5FEE0DFF2DF11D9083F701E80DF11D3A
:100530001082D8018D919C91DC01ED91FC91028497
:10054000F385E02D09950196A1F7F801EA5EFE4FCB
:100550000190F081E02D309709F00995F801808134
:100560009181DC01ED91FC912C2D2919281540F485
:10057000D6016D916D010190F081E02D0995EECFCE
:100580000680F781E02D0995F801E85EFE4F0190A5
:10059000F081E02D309709F009958FB7F8944090DD
:1005A00086015090870160908801709089018FBF0B
:1005B000E8E0CE2ED12C4801BCEE8B1ABEEF9B0A90
:1005C000F80180819181DC01ED91FC910084F1853D
:1005D000E02D0995892B09F448C0F80180819181AB
:1005E000DC01ED91FC910284F385E02D0995F70182
:1005F000ED0DF11D8083CA94D394B5E0DB125DC08C
:100600009981F8018281981329C1EA818E2F8F7711
:100610008B1126C1E7FF31C08B81811169C08FEF3B
:100620009FEF40E0CD2CD12CD6011297242F30E043
:100630002A173B070CF0BCC02E0D3F1DF90120818D
:10064000822728E030E0BC01617077279695879576
:10065000672B21F0F1E08F27F0EA9F272150310925
:1006600091F74F5FE3CF82EE3EC0D401ED91FC9154
:10067000309709F4C2CF0995C0CFE150E731E8F4D3
:10068000F0E0EB5BFC4F0C9493075C035C035C03B2
:100690005C039A039A035D035D035D035D035D03E1
:1006A0005D035D035D039A039A035D035D035D03D0
:1006B0005D035D0397035C03CB802FB7F8948091B3
:1006C000860190918701A0918801B09189012FBF87
:1006D00084199509A609B709813D9740A105B1057F
:1006E00008F0C1CF80E0CC2041F1882309F468CF25
:1006F000F801E35FFE4F108231961182108234962A
:100700001082D3950FB6F894DEBF0FBECDBFDF9138
:10071000CF911F910F91FF90EF90DF90CF90BF90FE
:100720009F908F907F906F905F904F90089575E0AD
:10073000C72EC3CF63E0C62EC0CF8111D9CF24E02E
:100740002D1508F46CCF8A81853030F4833030F475
:100750008130E0F580E0CCCF8731E1F74B8150E08C
:100760005595479580E068012DEEC21A2EEFD20A0A
:10077000282F30E0241735076CF78034A8F4F901EE
:100780003296EE0FFF1F220F331F200F311FBE01C5
:100790006E0F7F1FDB016C91EE0DFF1D9081762F98
:1007A000692FF90170876783D6018C938F5FE0CF43
:1007B000AE0DBF1D2C91281307C0F601EC0FFD1FD5
:1007C0008081891709F4BFCF83EE92CF6B81462FCA
:1007D00050E05595479520E068017DEEC71A7EEF01
:1007E000D70A822F90E0841795070CF52034D8F4AF
:1007F000880F991FD801A80FB91FF5E0EF2EF12C33
:10080000EC0EFD1EE80EF91EF7013081E4E0F0E089
:10081000EC0FFD1F8E0F9F1FFC018081932F1896F8
:100820009C938E931797D6012C932F5FDACF60FF9E
:1008300091CF203468F4880F991FF801E80FF91F51
:100840008C0F9D1FDC0114968C9190E0908787831C
:10085000F801ED5EFE4F2F5F20837CCF80EE48CF06
:1008600081EE46CFFC0101900020E9F73197AF01FE
:10087000481B590BBC018EE891E00C94FA008F9252
:100880009F92AF92BF920F931F93CF93DF93CDB7F9
:10089000DEB7A1970FB6F894DEBF0FBECDBF19A289
:1008A000423008F44AE08E010F5D1F4F842E912CD8
:1008B000B12CA12CA50194010E945D07E62FB9017E
:1008C000CA01EA30F4F4E05DD801EE938D01232BE8
:1008D000242B252B79F790E080E0109719F0CD01BB
:1008E0000E943204A1960FB6F894DEBF0FBECDBFB2
:1008F000DF91CF911F910F91BF90AF909F908F90FC
:100900000895E95CE1CFCF93DF93682F70E090E02A
:1009100080E040E10E943F04EC0182E191E00E940E
:1009200032048C0F9D1FDF91CF910895CF92DF92FB
:10093000EF92FF92CF93DF93EC0197FF06C08DE219
:100940000E94E701D195C195D109CE016AE070E01E
:100950000E947F076B01770FEE08FF084AE0C7018E
:10096000B601F7FE0BC08DE20E94E70166277727EC
:10097000CB016C197D098E099F094AE00E943F0452
:100980008EE20E94E701CE016AE070E00E947F07DC
:10099000BC01990F880B990B4AE0DF91CF91FF9032
:1009A000EF90DF90CF900C943F04EF92FF920F9363
:1009B0001F93CF93DF937C01EB01142F81E090E034
:1009C0009C838B8382E090E09E838D8364E0CE01E4
:1009D0000E940C02082F85E191E00E943204612FF1
:1009E00070E090E080E04AE00E943F0480E20E94D4
:1009F000E701C7010E943204002369F08BE191E016
:100A00000E943204802FDF91CF911F910F91FF90B0
:100A1000EF900C94830485E291E00E9432048F8170
:100A200098850E94960489E291E00E9432048985AB
:100A30009A850E94960482E191E0DF91CF911F9107
:100A40000F91FF90EF900C9432041F920F920FB60B
:100A50000F9211242F933F938F939F93AF93BF9344
:100A60008091860190918701A0918801B0918901C0
:100A70003091850123E0230F2D3758F50196A11DF4
:100A8000B11D209385018093860190938701A093E7
:100A90008801B093890180918A0190918B01A09186
:100AA0008C01B0918D010196A11DB11D80938A0129
:100AB00090938B01A0938C01B0938D01BF91AF9166
:100AC0009F918F913F912F910F900FBE0F901F908C
:100AD000189526E8230F0296A11DB11DD2CF1F92B3
:100AE0000F920FB60F9211242F933F934F935F9362
:100AF0006F937F938F939F93AF93BF93EF93FF93E6
:100B00008EE891E00E947801FF91EF91BF91AF9143
:100B10009F918F917F916F915F914F913F912F9115
:100B20000F900FBE0F901F9018951F920F920FB647
:100B30000F9211242F938F939F93EF93FF93E09144
:100B40009E01F0919F018081E091A401F091A501A7
:100B500082FD1BC090818091A7018F5F8F732091D0
:100B6000A801821741F0E091A701F0E0E257FE4FA3
:100B7000958F8093A701FF91EF919F918F912F9176
:100B80000F900FBE0F901F9018958081F4CFEEE864
:100B9000F1E01382128288EE93E0A0E0B0E084835B
:100BA0009583A683B78384E091E09183808385EC6D
:100BB00090E09587848784EC90E09787868780EC27
:100BC00090E0918B808B81EC90E0938B828B82EC18
:100BD00090E0958B848B86EC90E0978B868B118EC2
:100BE000128E138E148E10925A0410925904109281
:100BF0005C0410925B0410925E0410925D041092EB
:100C0000400310923F03109242031092410310924E
:100C10004403109243030895789484B5826084BDA0
:100C200084B5816084BD85B5826085BD85B58160F0
:100C300085BD80916E00816080936E00109281006E
:100C40008091810082608093810080918100816029
:100C500080938100809180008160809380008091EA
:100C6000B10084608093B1008091B0008160809376
:100C7000B00080917A00846080937A0080917A003D
:100C8000826080937A0080917A00816080937A00FC
:100C900080917A00806880937A001092C100E2E926
:100CA000F0E02491EEE7F0E08491882399F090E061
:100CB000880F991FFC01E859FF4FA591B491FC01E1
:100CC000EE58FF4F859194918FB7F894EC91E22BF9
:100CD000EC938FBF80E00E9487002EE831E0E09126
:100CE0009E01F0919F0192E09083E0919A01F09132
:100CF0009B011082E0919C01F0919D018FEC80831B
:100D00001092A601E091A201F091A30186E08083F8
:100D1000E091A001F091A101808180618083E09148
:100D2000A001F091A101808188608083E091A00101
:100D3000F091A101808180688083E091A001F09111
:100D4000A10180818F7D808381E080934703309370
:100D500046032093450310925204109254041092BB
:100D6000530490932D0230932C0220932B02109267
:100D7000380310923A031092390324EF30E0309395
:100D80005C0420935B0487EF90E090935E04809373
:100D90005D04309342032093410390934403809376
:100DA00043038DE291E00E94320482E191E00E94CF
:100DB000320490E0292E90E0392E812C22E0922EF0
:100DC000C1E0D0E003E011E035E0A32EB12C40916A
:100DD00084014F5F4093840165E473E082E491E015
:100DE0000E94D504409184016BE272E085E491E0B9
:100DF0000E94D50480918401823071F5909249035C
:100E000080924803D0934B03C0934A0363E085E488
:100E100093E00E940C02F82E88E491E00E943204D4
:100E20008F2D0E9483041093B3020093B20210929C
:100E3000B5021092B402B092B702A092B60266E078
:100E40008BE292E00E940C02F82E83E691E00E9471
:100E500032048F2D0E9483040E94CF002B013C019D
:100E600084EFC82EDD24D394E12CF12C0E94CF0016
:100E70006419750986099709683E734081059105D3
:100E8000A8F321E0C21AD108E108F10888EE480E63
:100E900083E0581E611C711CC114D104E104F104EB
:100EA00029F72114310409F492CF0E9464018823A8
:100EB00009F48DCF0E9400008ACFA1E21A2EAA1B4E
:100EC000BB1BFD010DC0AA1FBB1FEE1FFF1FA217FA
:100ED000B307E407F50720F0A21BB30BE40BF50BF7
:100EE000661F771F881F991F1A9469F76095709580
:100EF000809590959B01AC01BD01CF01089597FBB2
:100F0000072E16F4009407D077FD09D00E949907A8
:100F100007FC05D03EF4909581959F4F08957095FC
:100F200061957F4F0895EE0FFF1F0590F491E02D1E
:100F30000994AA1BBB1B51E107C0AA1FBB1FA61720
:100F4000B70710F0A61BB70B881F991F5A95A9F772
:0E0F500080959095BC01CD010895F894FFCFD7
:100F5E00000000009A01FA002701EC015801360149
:100F6E004A010D0A00706F6C6C2000206572726F62
:100F7E00722030780020543D0020483D006D6F6493
:100F8E006275732D727475206D6173746572207540
:100F9E007000733100733200706F6C6C20322073EE
:100FAE00312072656720307830323030202D3E206F
:100FBE00307800706F6C6C2032207332207772693B
:100FCE00746520636F7272656374696F6E202D3E57
:040FDE002030780047
:00000001FF
